{
    "_format": "hh-sol-artifact-1",
    "contractName": "PartySwap",
    "sourceName": "contracts/PartySwap.sol",
    "abi": [
        {
            "inputs": [],
            "stateMutability": "nonpayable",
            "type": "constructor"
        },
        {
            "anonymous": false,
            "inputs": [
                {
                    "indexed": true,
                    "internalType": "address",
                    "name": "from",
                    "type": "address"
                },
                {
                    "indexed": true,
                    "internalType": "address",
                    "name": "to",
                    "type": "address"
                },
                {
                    "indexed": false,
                    "internalType": "uint256",
                    "name": "current_swap_id",
                    "type": "uint256"
                }
            ],
            "name": "swapCreated",
            "type": "event"
        },
        {
            "inputs": [
                {
                    "internalType": "uint256",
                    "name": "fee",
                    "type": "uint256"
                }
            ],
            "name": "adjust_fee",
            "outputs": [],
            "stateMutability": "nonpayable",
            "type": "function"
        },
        {
            "inputs": [],
            "name": "admin",
            "outputs": [
                {
                    "internalType": "address payable",
                    "name": "",
                    "type": "address"
                }
            ],
            "stateMutability": "view",
            "type": "function"
        },
        {
            "inputs": [
                {
                    "internalType": "bool",
                    "name": "withdraw_eth",
                    "type": "bool"
                },
                {
                    "internalType": "address",
                    "name": "token_address",
                    "type": "address"
                }
            ],
            "name": "admin_withdraw_accrued_fees",
            "outputs": [],
            "stateMutability": "nonpayable",
            "type": "function"
        },
        {
            "inputs": [
                {
                    "internalType": "address payable",
                    "name": "from",
                    "type": "address"
                },
                {
                    "internalType": "address payable",
                    "name": "to",
                    "type": "address"
                },
                {
                    "internalType": "address",
                    "name": "from_token",
                    "type": "address"
                },
                {
                    "internalType": "address",
                    "name": "to_token",
                    "type": "address"
                },
                {
                    "internalType": "uint256",
                    "name": "from_amount",
                    "type": "uint256"
                },
                {
                    "internalType": "uint256",
                    "name": "to_amount",
                    "type": "uint256"
                },
                {
                    "internalType": "uint256",
                    "name": "is_eth",
                    "type": "uint256"
                },
                {
                    "internalType": "bool",
                    "name": "deposit_now",
                    "type": "bool"
                }
            ],
            "name": "createSwap",
            "outputs": [],
            "stateMutability": "payable",
            "type": "function"
        },
        {
            "inputs": [],
            "name": "current_fee",
            "outputs": [
                {
                    "internalType": "uint256",
                    "name": "",
                    "type": "uint256"
                }
            ],
            "stateMutability": "view",
            "type": "function"
        },
        {
            "inputs": [],
            "name": "current_swap_id",
            "outputs": [
                {
                    "internalType": "uint256",
                    "name": "",
                    "type": "uint256"
                }
            ],
            "stateMutability": "view",
            "type": "function"
        },
        {
            "inputs": [],
            "name": "eth_fees_accrued",
            "outputs": [
                {
                    "internalType": "uint256",
                    "name": "",
                    "type": "uint256"
                }
            ],
            "stateMutability": "view",
            "type": "function"
        },
        {
            "inputs": [
                {
                    "internalType": "uint256",
                    "name": "swap_id",
                    "type": "uint256"
                }
            ],
            "name": "from_deposit",
            "outputs": [],
            "stateMutability": "payable",
            "type": "function"
        },
        {
            "inputs": [
                {
                    "internalType": "uint256",
                    "name": "swap_id",
                    "type": "uint256"
                }
            ],
            "name": "from_withdraw_own_tokens",
            "outputs": [],
            "stateMutability": "nonpayable",
            "type": "function"
        },
        {
            "inputs": [
                {
                    "internalType": "uint256",
                    "name": "swap_id",
                    "type": "uint256"
                }
            ],
            "name": "from_withdraw_to_tokens",
            "outputs": [],
            "stateMutability": "nonpayable",
            "type": "function"
        },
        {
            "inputs": [
                {
                    "internalType": "uint256",
                    "name": "swap_id",
                    "type": "uint256"
                }
            ],
            "name": "swaps_id_details_getter",
            "outputs": [
                {
                    "components": [
                        {
                            "internalType": "address payable",
                            "name": "from",
                            "type": "address"
                        },
                        {
                            "internalType": "address payable",
                            "name": "to",
                            "type": "address"
                        },
                        {
                            "internalType": "address",
                            "name": "from_token",
                            "type": "address"
                        },
                        {
                            "internalType": "address",
                            "name": "to_token",
                            "type": "address"
                        },
                        {
                            "internalType": "uint256",
                            "name": "from_amount",
                            "type": "uint256"
                        },
                        {
                            "internalType": "uint256",
                            "name": "to_amount",
                            "type": "uint256"
                        },
                        {
                            "internalType": "uint256",
                            "name": "fee_percent_each",
                            "type": "uint256"
                        },
                        {
                            "internalType": "bool",
                            "name": "from_deposited",
                            "type": "bool"
                        },
                        {
                            "internalType": "bool",
                            "name": "to_deposited",
                            "type": "bool"
                        },
                        {
                            "internalType": "bool",
                            "name": "from_complete",
                            "type": "bool"
                        },
                        {
                            "internalType": "bool",
                            "name": "to_complete",
                            "type": "bool"
                        },
                        {
                            "internalType": "uint256",
                            "name": "is_eth",
                            "type": "uint256"
                        }
                    ],
                    "internalType": "struct PartySwap.Swap",
                    "name": "",
                    "type": "tuple"
                }
            ],
            "stateMutability": "view",
            "type": "function"
        },
        {
            "inputs": [
                {
                    "internalType": "uint256",
                    "name": "",
                    "type": "uint256"
                }
            ],
            "name": "swaps_list",
            "outputs": [
                {
                    "internalType": "address payable",
                    "name": "from",
                    "type": "address"
                },
                {
                    "internalType": "address payable",
                    "name": "to",
                    "type": "address"
                },
                {
                    "internalType": "address",
                    "name": "from_token",
                    "type": "address"
                },
                {
                    "internalType": "address",
                    "name": "to_token",
                    "type": "address"
                },
                {
                    "internalType": "uint256",
                    "name": "from_amount",
                    "type": "uint256"
                },
                {
                    "internalType": "uint256",
                    "name": "to_amount",
                    "type": "uint256"
                },
                {
                    "internalType": "uint256",
                    "name": "fee_percent_each",
                    "type": "uint256"
                },
                {
                    "internalType": "bool",
                    "name": "from_deposited",
                    "type": "bool"
                },
                {
                    "internalType": "bool",
                    "name": "to_deposited",
                    "type": "bool"
                },
                {
                    "internalType": "bool",
                    "name": "from_complete",
                    "type": "bool"
                },
                {
                    "internalType": "bool",
                    "name": "to_complete",
                    "type": "bool"
                },
                {
                    "internalType": "uint256",
                    "name": "is_eth",
                    "type": "uint256"
                }
            ],
            "stateMutability": "view",
            "type": "function"
        },
        {
            "inputs": [
                {
                    "internalType": "address payable",
                    "name": "new_admin",
                    "type": "address"
                }
            ],
            "name": "switch_admin_address",
            "outputs": [],
            "stateMutability": "nonpayable",
            "type": "function"
        },
        {
            "inputs": [
                {
                    "internalType": "uint256",
                    "name": "swap_id",
                    "type": "uint256"
                }
            ],
            "name": "to_deposit",
            "outputs": [],
            "stateMutability": "payable",
            "type": "function"
        },
        {
            "inputs": [
                {
                    "internalType": "uint256",
                    "name": "swap_id",
                    "type": "uint256"
                }
            ],
            "name": "to_withdraw_from_tokens",
            "outputs": [],
            "stateMutability": "nonpayable",
            "type": "function"
        },
        {
            "inputs": [
                {
                    "internalType": "uint256",
                    "name": "swap_id",
                    "type": "uint256"
                }
            ],
            "name": "to_withdraw_own_tokens",
            "outputs": [],
            "stateMutability": "nonpayable",
            "type": "function"
        },
        {
            "inputs": [
                {
                    "internalType": "address",
                    "name": "",
                    "type": "address"
                }
            ],
            "name": "token_fees_accrued",
            "outputs": [
                {
                    "internalType": "uint256",
                    "name": "",
                    "type": "uint256"
                }
            ],
            "stateMutability": "view",
            "type": "function"
        }
    ],
    "bytecode": "0x6080604052604b60025534801561001557600080fd5b5033600360006101000a81548173ffffffffffffffffffffffffffffffffffffffff021916908373ffffffffffffffffffffffffffffffffffffffff160217905550614ab0806100666000396000f3fe6080604052600436106100fe5760003560e01c8063a35c2e8311610095578063b3fc5edf11610064578063b3fc5edf1461032f578063bc7e4f8b14610358578063c2c19d4814610381578063e2fadf3d1461039d578063f851a440146103b9576100fe565b8063a35c2e8314610285578063a6d8209d146102ae578063a8a09c92146102d9578063b04a507514610304576100fe565b8063686ef905116100d1578063686ef905146101ee5780637932f2bc1461020a5780638e4fe9bb146102335780639269ff0a1461025c576100fe565b80632281c0ba1461010357806328738fdd146101405780632bb8ceb91461018857806335c11cd8146101b1575b600080fd5b34801561010f57600080fd5b5061012a60048036038101906101259190613b52565b6103e4565b604051610137919061440c565b60405180910390f35b34801561014c57600080fd5b5061016760048036038101906101629190613cbb565b6103fc565b60405161017f9c9b9a999897969594939291906140cd565b60405180910390f35b34801561019457600080fd5b506101af60048036038101906101aa9190613cbb565b610520565b005b3480156101bd57600080fd5b506101d860048036038101906101d39190613cbb565b610cb8565b6040516101e591906143f0565b60405180910390f35b61020860048036038101906102039190613ba4565b610f07565b005b34801561021657600080fd5b50610231600480360381019061022c9190613c7f565b6117e0565b005b34801561023f57600080fd5b5061025a60048036038101906102559190613cbb565b611a2d565b005b34801561026857600080fd5b50610283600480360381019061027e9190613cbb565b6121c4565b005b34801561029157600080fd5b506102ac60048036038101906102a79190613cbb565b61226d565b005b3480156102ba57600080fd5b506102c36127c1565b6040516102d0919061440c565b60405180910390f35b3480156102e557600080fd5b506102ee6127c7565b6040516102fb919061440c565b60405180910390f35b34801561031057600080fd5b506103196127cd565b604051610326919061440c565b60405180910390f35b34801561033b57600080fd5b5061035660048036038101906103519190613cbb565b6127d3565b005b34801561036457600080fd5b5061037f600480360381019061037a9190613b7b565b612d28565b005b61039b60048036038101906103969190613cbb565b612dfc565b005b6103b760048036038101906103b29190613cbb565b6133f4565b005b3480156103c557600080fd5b506103ce6139ed565b6040516103db91906140b2565b60405180910390f35b60056020528060005260406000206000915090505481565b6000818154811061040c57600080fd5b90600052602060002090600902016000915090508060000160009054906101000a900473ffffffffffffffffffffffffffffffffffffffff16908060010160009054906101000a900473ffffffffffffffffffffffffffffffffffffffff16908060020160009054906101000a900473ffffffffffffffffffffffffffffffffffffffff16908060030160009054906101000a900473ffffffffffffffffffffffffffffffffffffffff16908060040154908060050154908060060154908060070160009054906101000a900460ff16908060070160019054906101000a900460ff16908060070160029054906101000a900460ff16908060070160039054906101000a900460ff1690806008015490508c565b3373ffffffffffffffffffffffffffffffffffffffff1660008281548110610571577f4e487b7100000000000000000000000000000000000000000000000000000000600052603260045260246000fd5b906000526020600020906009020160000160009054906101000a900473ffffffffffffffffffffffffffffffffffffffff1673ffffffffffffffffffffffffffffffffffffffff16146105f9576040517f08c379a00000000000000000000000000000000000000000000000000000000081526004016105f090614270565b60405180910390fd5b6000151560008281548110610637577f4e487b7100000000000000000000000000000000000000000000000000000000600052603260045260246000fd5b906000526020600020906009020160070160029054906101000a900460ff16151514610698576040517f08c379a000000000000000000000000000000000000000000000000000000000815260040161068f906143b0565b60405180910390fd5b60011515600082815481106106d6577f4e487b7100000000000000000000000000000000000000000000000000000000600052603260045260246000fd5b906000526020600020906009020160070160009054906101000a900460ff16151514610737576040517f08c379a000000000000000000000000000000000000000000000000000000000815260040161072e90614210565b60405180910390fd5b6001151560008281548110610775577f4e487b7100000000000000000000000000000000000000000000000000000000600052603260045260246000fd5b906000526020600020906009020160070160019054906101000a900460ff161515146107d6576040517f08c379a00000000000000000000000000000000000000000000000000000000081526004016107cd906142b0565b60405180910390fd5b600061271060008381548110610815577f4e487b7100000000000000000000000000000000000000000000000000000000600052603260045260246000fd5b90600052602060002090600902016006015460008481548110610861577f4e487b7100000000000000000000000000000000000000000000000000000000600052603260045260246000fd5b90600052602060002090600902016005015461087d91906144bf565b610887919061448e565b9050600160028111156108c3577f4e487b7100000000000000000000000000000000000000000000000000000000600052602160045260246000fd5b600083815481106108fd577f4e487b7100000000000000000000000000000000000000000000000000000000600052603260045260246000fd5b9060005260206000209060090201600801541415610b2e576000808381548110610950577f4e487b7100000000000000000000000000000000000000000000000000000000600052603260045260246000fd5b906000526020600020906009020160030160009054906101000a900473ffffffffffffffffffffffffffffffffffffffff16905081600560008086815481106109c2577f4e487b7100000000000000000000000000000000000000000000000000000000600052603260045260246000fd5b906000526020600020906009020160030160009054906101000a900473ffffffffffffffffffffffffffffffffffffffff1673ffffffffffffffffffffffffffffffffffffffff1673ffffffffffffffffffffffffffffffffffffffff1681526020019081526020016000206000828254610a3d9190614438565b925050819055508073ffffffffffffffffffffffffffffffffffffffff1663a9059cbb338460008781548110610a9c577f4e487b7100000000000000000000000000000000000000000000000000000000600052603260045260246000fd5b906000526020600020906009020160050154610ab89190614519565b6040518363ffffffff1660e01b8152600401610ad59291906141e7565b602060405180830381600087803b158015610aef57600080fd5b505af1158015610b03573d6000803e3d6000fd5b505050506040513d601f19601f82011682018060405250810190610b279190613c56565b5050610c50565b8060046000828254610b409190614438565b9250508190555060008281548110610b81577f4e487b7100000000000000000000000000000000000000000000000000000000600052603260045260246000fd5b906000526020600020906009020160000160009054906101000a900473ffffffffffffffffffffffffffffffffffffffff1673ffffffffffffffffffffffffffffffffffffffff166108fc8260008581548110610c07577f4e487b7100000000000000000000000000000000000000000000000000000000600052603260045260246000fd5b906000526020600020906009020160050154610c239190614519565b9081150290604051600060405180830381858888f19350505050158015610c4e573d6000803e3d6000fd5b505b600160008381548110610c8c577f4e487b7100000000000000000000000000000000000000000000000000000000600052603260045260246000fd5b906000526020600020906009020160070160026101000a81548160ff0219169083151502179055505050565b610cc0613a13565b60008281548110610cfa577f4e487b7100000000000000000000000000000000000000000000000000000000600052603260045260246000fd5b9060005260206000209060090201604051806101800160405290816000820160009054906101000a900473ffffffffffffffffffffffffffffffffffffffff1673ffffffffffffffffffffffffffffffffffffffff1673ffffffffffffffffffffffffffffffffffffffff1681526020016001820160009054906101000a900473ffffffffffffffffffffffffffffffffffffffff1673ffffffffffffffffffffffffffffffffffffffff1673ffffffffffffffffffffffffffffffffffffffff1681526020016002820160009054906101000a900473ffffffffffffffffffffffffffffffffffffffff1673ffffffffffffffffffffffffffffffffffffffff1673ffffffffffffffffffffffffffffffffffffffff1681526020016003820160009054906101000a900473ffffffffffffffffffffffffffffffffffffffff1673ffffffffffffffffffffffffffffffffffffffff1673ffffffffffffffffffffffffffffffffffffffff1681526020016004820154815260200160058201548152602001600682015481526020016007820160009054906101000a900460ff161515151581526020016007820160019054906101000a900460ff161515151581526020016007820160029054906101000a900460ff161515151581526020016007820160039054906101000a900460ff161515151581526020016008820154815250509050919050565b3373ffffffffffffffffffffffffffffffffffffffff168873ffffffffffffffffffffffffffffffffffffffff1614610f75576040517f08c379a0000000000000000000000000000000000000000000000000000000008152600401610f6c90614350565b60405180910390fd5b60006040518061018001604052808a73ffffffffffffffffffffffffffffffffffffffff1681526020018973ffffffffffffffffffffffffffffffffffffffff1681526020018873ffffffffffffffffffffffffffffffffffffffff1681526020018773ffffffffffffffffffffffffffffffffffffffff168152602001868152602001858152602001600254815260200160001515815260200160001515815260200160001515815260200160001515815260200184815250908060018154018082558091505060019003906000526020600020906009020160009091909190915060008201518160000160006101000a81548173ffffffffffffffffffffffffffffffffffffffff021916908373ffffffffffffffffffffffffffffffffffffffff16021790555060208201518160010160006101000a81548173ffffffffffffffffffffffffffffffffffffffff021916908373ffffffffffffffffffffffffffffffffffffffff16021790555060408201518160020160006101000a81548173ffffffffffffffffffffffffffffffffffffffff021916908373ffffffffffffffffffffffffffffffffffffffff16021790555060608201518160030160006101000a81548173ffffffffffffffffffffffffffffffffffffffff021916908373ffffffffffffffffffffffffffffffffffffffff1602179055506080820151816004015560a0820151816005015560c0820151816006015560e08201518160070160006101000a81548160ff0219169083151502179055506101008201518160070160016101000a81548160ff0219169083151502179055506101208201518160070160026101000a81548160ff0219169083151502179055506101408201518160070160036101000a81548160ff021916908315150217905550610160820151816008015550508015611756573373ffffffffffffffffffffffffffffffffffffffff1660006001548154811061127b577f4e487b7100000000000000000000000000000000000000000000000000000000600052603260045260246000fd5b906000526020600020906009020160000160009054906101000a900473ffffffffffffffffffffffffffffffffffffffff1673ffffffffffffffffffffffffffffffffffffffff1614611303576040517f08c379a00000000000000000000000000000000000000000000000000000000081526004016112fa90614290565b60405180910390fd5b6001600281111561133d577f4e487b7100000000000000000000000000000000000000000000000000000000600052602160045260246000fd5b600060015481548110611379577f4e487b7100000000000000000000000000000000000000000000000000000000600052603260045260246000fd5b90600052602060002090600902016008015414156113ef576000600154815481106113cd577f4e487b7100000000000000000000000000000000000000000000000000000000600052603260045260246000fd5b90600052602060002090600902016004015434146113ea57600080fd5b6116ef565b6000806001548154811061142c577f4e487b7100000000000000000000000000000000000000000000000000000000600052603260045260246000fd5b906000526020600020906009020160020160009054906101000a900473ffffffffffffffffffffffffffffffffffffffff16905060008173ffffffffffffffffffffffffffffffffffffffff166370a08231306040518263ffffffff1660e01b815260040161149b9190614097565b60206040518083038186803b1580156114b357600080fd5b505afa1580156114c7573d6000803e3d6000fd5b505050506040513d601f19601f820116820180604052508101906114eb9190613ce4565b90508173ffffffffffffffffffffffffffffffffffffffff166323b872dd3330600060015481548110611547577f4e487b7100000000000000000000000000000000000000000000000000000000600052603260045260246000fd5b9060005260206000209060090201600401546040518463ffffffff1660e01b8152600401611577939291906141b0565b602060405180830381600087803b15801561159157600080fd5b505af11580156115a5573d6000803e3d6000fd5b505050506040513d601f19601f820116820180604052508101906115c99190613c56565b50600060015481548110611606577f4e487b7100000000000000000000000000000000000000000000000000000000600052603260045260246000fd5b906000526020600020906009020160040154818373ffffffffffffffffffffffffffffffffffffffff166370a08231306040518263ffffffff1660e01b81526004016116529190614097565b60206040518083038186803b15801561166a57600080fd5b505afa15801561167e573d6000803e3d6000fd5b505050506040513d601f19601f820116820180604052508101906116a29190613ce4565b6116ac9190614519565b146116ec576040517f08c379a00000000000000000000000000000000000000000000000000000000081526004016116e390614230565b60405180910390fd5b50505b600160006001548154811061172d577f4e487b7100000000000000000000000000000000000000000000000000000000600052603260045260246000fd5b906000526020600020906009020160070160006101000a81548160ff0219169083151502179055505b8673ffffffffffffffffffffffffffffffffffffffff168873ffffffffffffffffffffffffffffffffffffffff167fabbbbb32ba3fa8a14c8b74abf64dc0bce79d463a4f3e4646ba3542f8f571a4436001546040516117b5919061440c565b60405180910390a360018060008282546117cf9190614438565b925050819055505050505050505050565b600360009054906101000a900473ffffffffffffffffffffffffffffffffffffffff1673ffffffffffffffffffffffffffffffffffffffff163373ffffffffffffffffffffffffffffffffffffffff1614611870576040517f08c379a0000000000000000000000000000000000000000000000000000000008152600401611867906142f0565b60405180910390fd5b81156118ee57600360009054906101000a900473ffffffffffffffffffffffffffffffffffffffff1673ffffffffffffffffffffffffffffffffffffffff166108fc6004549081150290604051600060405180830381858888f193505050501580156118e0573d6000803e3d6000fd5b506000600481905550611a29565b60008190508073ffffffffffffffffffffffffffffffffffffffff1663a9059cbb600360009054906101000a900473ffffffffffffffffffffffffffffffffffffffff16600560008673ffffffffffffffffffffffffffffffffffffffff1673ffffffffffffffffffffffffffffffffffffffff168152602001908152602001600020546040518363ffffffff1660e01b815260040161198f929190614187565b602060405180830381600087803b1580156119a957600080fd5b505af11580156119bd573d6000803e3d6000fd5b505050506040513d601f19601f820116820180604052508101906119e19190613c56565b506000600560008473ffffffffffffffffffffffffffffffffffffffff1673ffffffffffffffffffffffffffffffffffffffff16815260200190815260200160002081905550505b5050565b3373ffffffffffffffffffffffffffffffffffffffff1660008281548110611a7e577f4e487b7100000000000000000000000000000000000000000000000000000000600052603260045260246000fd5b906000526020600020906009020160010160009054906101000a900473ffffffffffffffffffffffffffffffffffffffff1673ffffffffffffffffffffffffffffffffffffffff1614611b06576040517f08c379a0000000000000000000000000000000000000000000000000000000008152600401611afd90614270565b60405180910390fd5b6000151560008281548110611b44577f4e487b7100000000000000000000000000000000000000000000000000000000600052603260045260246000fd5b906000526020600020906009020160070160039054906101000a900460ff16151514611ba5576040517f08c379a0000000000000000000000000000000000000000000000000000000008152600401611b9c906143b0565b60405180910390fd5b6001151560008281548110611be3577f4e487b7100000000000000000000000000000000000000000000000000000000600052603260045260246000fd5b906000526020600020906009020160070160019054906101000a900460ff16151514611c44576040517f08c379a0000000000000000000000000000000000000000000000000000000008152600401611c3b90614210565b60405180910390fd5b6001151560008281548110611c82577f4e487b7100000000000000000000000000000000000000000000000000000000600052603260045260246000fd5b906000526020600020906009020160070160009054906101000a900460ff16151514611ce3576040517f08c379a0000000000000000000000000000000000000000000000000000000008152600401611cda906142b0565b60405180910390fd5b600061271060008381548110611d22577f4e487b7100000000000000000000000000000000000000000000000000000000600052603260045260246000fd5b90600052602060002090600902016006015460008481548110611d6e577f4e487b7100000000000000000000000000000000000000000000000000000000600052603260045260246000fd5b906000526020600020906009020160040154611d8a91906144bf565b611d94919061448e565b9050600280811115611dcf577f4e487b7100000000000000000000000000000000000000000000000000000000600052602160045260246000fd5b60008381548110611e09577f4e487b7100000000000000000000000000000000000000000000000000000000600052603260045260246000fd5b906000526020600020906009020160080154141561203a576000808381548110611e5c577f4e487b7100000000000000000000000000000000000000000000000000000000600052603260045260246000fd5b906000526020600020906009020160020160009054906101000a900473ffffffffffffffffffffffffffffffffffffffff1690508160056000808681548110611ece577f4e487b7100000000000000000000000000000000000000000000000000000000600052603260045260246000fd5b906000526020600020906009020160020160009054906101000a900473ffffffffffffffffffffffffffffffffffffffff1673ffffffffffffffffffffffffffffffffffffffff1673ffffffffffffffffffffffffffffffffffffffff1681526020019081526020016000206000828254611f499190614438565b925050819055508073ffffffffffffffffffffffffffffffffffffffff1663a9059cbb338460008781548110611fa8577f4e487b7100000000000000000000000000000000000000000000000000000000600052603260045260246000fd5b906000526020600020906009020160040154611fc49190614519565b6040518363ffffffff1660e01b8152600401611fe19291906141e7565b602060405180830381600087803b158015611ffb57600080fd5b505af115801561200f573d6000803e3d6000fd5b505050506040513d601f19601f820116820180604052508101906120339190613c56565b505061215c565b806004600082825461204c9190614438565b925050819055506000828154811061208d577f4e487b7100000000000000000000000000000000000000000000000000000000600052603260045260246000fd5b906000526020600020906009020160010160009054906101000a900473ffffffffffffffffffffffffffffffffffffffff1673ffffffffffffffffffffffffffffffffffffffff166108fc8260008581548110612113577f4e487b7100000000000000000000000000000000000000000000000000000000600052603260045260246000fd5b90600052602060002090600902016004015461212f9190614519565b9081150290604051600060405180830381858888f1935050505015801561215a573d6000803e3d6000fd5b505b600160008381548110612198577f4e487b7100000000000000000000000000000000000000000000000000000000600052603260045260246000fd5b906000526020600020906009020160070160036101000a81548160ff0219169083151502179055505050565b600360009054906101000a900473ffffffffffffffffffffffffffffffffffffffff1673ffffffffffffffffffffffffffffffffffffffff163373ffffffffffffffffffffffffffffffffffffffff1614612254576040517f08c379a000000000000000000000000000000000000000000000000000000000815260040161224b906142f0565b60405180910390fd5b6101f481111561226357600080fd5b8060028190555050565b3373ffffffffffffffffffffffffffffffffffffffff16600082815481106122be577f4e487b7100000000000000000000000000000000000000000000000000000000600052603260045260246000fd5b906000526020600020906009020160010160009054906101000a900473ffffffffffffffffffffffffffffffffffffffff1673ffffffffffffffffffffffffffffffffffffffff1614612346576040517f08c379a000000000000000000000000000000000000000000000000000000000815260040161233d906142d0565b60405180910390fd5b6000151560008281548110612384577f4e487b7100000000000000000000000000000000000000000000000000000000600052603260045260246000fd5b906000526020600020906009020160070160029054906101000a900460ff161515146123e5576040517f08c379a00000000000000000000000000000000000000000000000000000000081526004016123dc90614330565b60405180910390fd5b6001151560008281548110612423577f4e487b7100000000000000000000000000000000000000000000000000000000600052603260045260246000fd5b906000526020600020906009020160070160019054906101000a900460ff16151514612484576040517f08c379a000000000000000000000000000000000000000000000000000000000815260040161247b90614390565b60405180910390fd5b6002808111156124bd577f4e487b7100000000000000000000000000000000000000000000000000000000600052602160045260246000fd5b600082815481106124f7577f4e487b7100000000000000000000000000000000000000000000000000000000600052603260045260246000fd5b90600052602060002090600902016008015414156126115760008181548110612549577f4e487b7100000000000000000000000000000000000000000000000000000000600052603260045260246000fd5b906000526020600020906009020160010160009054906101000a900473ffffffffffffffffffffffffffffffffffffffff1673ffffffffffffffffffffffffffffffffffffffff166108fc600083815481106125ce577f4e487b7100000000000000000000000000000000000000000000000000000000600052603260045260246000fd5b9060005260206000209060090201600501549081150290604051600060405180830381858888f1935050505015801561260b573d6000803e3d6000fd5b5061275b565b600080828154811061264c577f4e487b7100000000000000000000000000000000000000000000000000000000600052603260045260246000fd5b906000526020600020906009020160030160009054906101000a900473ffffffffffffffffffffffffffffffffffffffff1690508073ffffffffffffffffffffffffffffffffffffffff1663a9059cbb33600085815481106126d7577f4e487b7100000000000000000000000000000000000000000000000000000000600052603260045260246000fd5b9060005260206000209060090201600501546040518363ffffffff1660e01b81526004016127069291906141e7565b602060405180830381600087803b15801561272057600080fd5b505af1158015612734573d6000803e3d6000fd5b505050506040513d601f19601f820116820180604052508101906127589190613c56565b50505b6000808281548110612796577f4e487b7100000000000000000000000000000000000000000000000000000000600052603260045260246000fd5b906000526020600020906009020160070160016101000a81548160ff02191690831515021790555050565b60045481565b60025481565b60015481565b3373ffffffffffffffffffffffffffffffffffffffff1660008281548110612824577f4e487b7100000000000000000000000000000000000000000000000000000000600052603260045260246000fd5b906000526020600020906009020160000160009054906101000a900473ffffffffffffffffffffffffffffffffffffffff1673ffffffffffffffffffffffffffffffffffffffff16146128ac576040517f08c379a00000000000000000000000000000000000000000000000000000000081526004016128a390614310565b60405180910390fd5b60001515600082815481106128ea577f4e487b7100000000000000000000000000000000000000000000000000000000600052603260045260246000fd5b906000526020600020906009020160070160039054906101000a900460ff1615151461294b576040517f08c379a000000000000000000000000000000000000000000000000000000000815260040161294290614330565b60405180910390fd5b6001151560008281548110612989577f4e487b7100000000000000000000000000000000000000000000000000000000600052603260045260246000fd5b906000526020600020906009020160070160009054906101000a900460ff161515146129ea576040517f08c379a00000000000000000000000000000000000000000000000000000000081526004016129e190614390565b60405180910390fd5b60016002811115612a24577f4e487b7100000000000000000000000000000000000000000000000000000000600052602160045260246000fd5b60008281548110612a5e577f4e487b7100000000000000000000000000000000000000000000000000000000600052603260045260246000fd5b9060005260206000209060090201600801541415612b785760008181548110612ab0577f4e487b7100000000000000000000000000000000000000000000000000000000600052603260045260246000fd5b906000526020600020906009020160000160009054906101000a900473ffffffffffffffffffffffffffffffffffffffff1673ffffffffffffffffffffffffffffffffffffffff166108fc60008381548110612b35577f4e487b7100000000000000000000000000000000000000000000000000000000600052603260045260246000fd5b9060005260206000209060090201600401549081150290604051600060405180830381858888f19350505050158015612b72573d6000803e3d6000fd5b50612cc2565b6000808281548110612bb3577f4e487b7100000000000000000000000000000000000000000000000000000000600052603260045260246000fd5b906000526020600020906009020160020160009054906101000a900473ffffffffffffffffffffffffffffffffffffffff1690508073ffffffffffffffffffffffffffffffffffffffff1663a9059cbb3360008581548110612c3e577f4e487b7100000000000000000000000000000000000000000000000000000000600052603260045260246000fd5b9060005260206000209060090201600401546040518363ffffffff1660e01b8152600401612c6d9291906141e7565b602060405180830381600087803b158015612c8757600080fd5b505af1158015612c9b573d6000803e3d6000fd5b505050506040513d601f19601f82011682018060405250810190612cbf9190613c56565b50505b6000808281548110612cfd577f4e487b7100000000000000000000000000000000000000000000000000000000600052603260045260246000fd5b906000526020600020906009020160070160006101000a81548160ff02191690831515021790555050565b600360009054906101000a900473ffffffffffffffffffffffffffffffffffffffff1673ffffffffffffffffffffffffffffffffffffffff163373ffffffffffffffffffffffffffffffffffffffff1614612db8576040517f08c379a0000000000000000000000000000000000000000000000000000000008152600401612daf906142f0565b60405180910390fd5b80600360006101000a81548173ffffffffffffffffffffffffffffffffffffffff021916908373ffffffffffffffffffffffffffffffffffffffff16021790555050565b3373ffffffffffffffffffffffffffffffffffffffff1660008281548110612e4d577f4e487b7100000000000000000000000000000000000000000000000000000000600052603260045260246000fd5b906000526020600020906009020160010160009054906101000a900473ffffffffffffffffffffffffffffffffffffffff1673ffffffffffffffffffffffffffffffffffffffff1614612ed5576040517f08c379a0000000000000000000000000000000000000000000000000000000008152600401612ecc906143d0565b60405180910390fd5b6000151560008281548110612f13577f4e487b7100000000000000000000000000000000000000000000000000000000600052603260045260246000fd5b906000526020600020906009020160070160019054906101000a900460ff16151514612f74576040517f08c379a0000000000000000000000000000000000000000000000000000000008152600401612f6b90614370565b60405180910390fd5b600280811115612fad577f4e487b7100000000000000000000000000000000000000000000000000000000600052602160045260246000fd5b60008281548110612fe7577f4e487b7100000000000000000000000000000000000000000000000000000000600052603260045260246000fd5b90600052602060002090600902016008015414156130915760008181548110613039577f4e487b7100000000000000000000000000000000000000000000000000000000600052603260045260246000fd5b906000526020600020906009020160050154341461308c576040517f08c379a000000000000000000000000000000000000000000000000000000000815260040161308390614250565b60405180910390fd5b61338d565b60008082815481106130cc577f4e487b7100000000000000000000000000000000000000000000000000000000600052603260045260246000fd5b906000526020600020906009020160030160009054906101000a900473ffffffffffffffffffffffffffffffffffffffff16905060008173ffffffffffffffffffffffffffffffffffffffff166370a08231306040518263ffffffff1660e01b815260040161313b9190614097565b60206040518083038186803b15801561315357600080fd5b505afa158015613167573d6000803e3d6000fd5b505050506040513d601f19601f8201168201806040525081019061318b9190613ce4565b90508173ffffffffffffffffffffffffffffffffffffffff166323b872dd3330600087815481106131e5577f4e487b7100000000000000000000000000000000000000000000000000000000600052603260045260246000fd5b9060005260206000209060090201600501546040518463ffffffff1660e01b8152600401613215939291906141b0565b602060405180830381600087803b15801561322f57600080fd5b505af1158015613243573d6000803e3d6000fd5b505050506040513d601f19601f820116820180604052508101906132679190613c56565b506000600154815481106132a4577f4e487b7100000000000000000000000000000000000000000000000000000000600052603260045260246000fd5b906000526020600020906009020160050154818373ffffffffffffffffffffffffffffffffffffffff166370a08231306040518263ffffffff1660e01b81526004016132f09190614097565b60206040518083038186803b15801561330857600080fd5b505afa15801561331c573d6000803e3d6000fd5b505050506040513d601f19601f820116820180604052508101906133409190613ce4565b61334a9190614519565b1461338a576040517f08c379a000000000000000000000000000000000000000000000000000000000815260040161338190614230565b60405180910390fd5b50505b6001600082815481106133c9577f4e487b7100000000000000000000000000000000000000000000000000000000600052603260045260246000fd5b906000526020600020906009020160070160016101000a81548160ff02191690831515021790555050565b3373ffffffffffffffffffffffffffffffffffffffff1660008281548110613445577f4e487b7100000000000000000000000000000000000000000000000000000000600052603260045260246000fd5b906000526020600020906009020160000160009054906101000a900473ffffffffffffffffffffffffffffffffffffffff1673ffffffffffffffffffffffffffffffffffffffff16146134cd576040517f08c379a00000000000000000000000000000000000000000000000000000000081526004016134c490614290565b60405180910390fd5b600015156000828154811061350b577f4e487b7100000000000000000000000000000000000000000000000000000000600052603260045260246000fd5b906000526020600020906009020160070160009054906101000a900460ff1615151461356c576040517f08c379a000000000000000000000000000000000000000000000000000000000815260040161356390614370565b60405180910390fd5b600160028111156135a6577f4e487b7100000000000000000000000000000000000000000000000000000000600052602160045260246000fd5b600082815481106135e0577f4e487b7100000000000000000000000000000000000000000000000000000000600052603260045260246000fd5b906000526020600020906009020160080154141561368a5760008181548110613632577f4e487b7100000000000000000000000000000000000000000000000000000000600052603260045260246000fd5b9060005260206000209060090201600401543414613685576040517f08c379a000000000000000000000000000000000000000000000000000000000815260040161367c90614250565b60405180910390fd5b613986565b60008082815481106136c5577f4e487b7100000000000000000000000000000000000000000000000000000000600052603260045260246000fd5b906000526020600020906009020160020160009054906101000a900473ffffffffffffffffffffffffffffffffffffffff16905060008173ffffffffffffffffffffffffffffffffffffffff166370a08231306040518263ffffffff1660e01b81526004016137349190614097565b60206040518083038186803b15801561374c57600080fd5b505afa158015613760573d6000803e3d6000fd5b505050506040513d601f19601f820116820180604052508101906137849190613ce4565b90508173ffffffffffffffffffffffffffffffffffffffff166323b872dd3330600087815481106137de577f4e487b7100000000000000000000000000000000000000000000000000000000600052603260045260246000fd5b9060005260206000209060090201600401546040518463ffffffff1660e01b815260040161380e939291906141b0565b602060405180830381600087803b15801561382857600080fd5b505af115801561383c573d6000803e3d6000fd5b505050506040513d601f19601f820116820180604052508101906138609190613c56565b5060006001548154811061389d577f4e487b7100000000000000000000000000000000000000000000000000000000600052603260045260246000fd5b906000526020600020906009020160040154818373ffffffffffffffffffffffffffffffffffffffff166370a08231306040518263ffffffff1660e01b81526004016138e99190614097565b60206040518083038186803b15801561390157600080fd5b505afa158015613915573d6000803e3d6000fd5b505050506040513d601f19601f820116820180604052508101906139399190613ce4565b6139439190614519565b14613983576040517f08c379a000000000000000000000000000000000000000000000000000000000815260040161397a90614230565b60405180910390fd5b50505b6001600082815481106139c2577f4e487b7100000000000000000000000000000000000000000000000000000000600052603260045260246000fd5b906000526020600020906009020160070160006101000a81548160ff02191690831515021790555050565b600360009054906101000a900473ffffffffffffffffffffffffffffffffffffffff1681565b604051806101800160405280600073ffffffffffffffffffffffffffffffffffffffff168152602001600073ffffffffffffffffffffffffffffffffffffffff168152602001600073ffffffffffffffffffffffffffffffffffffffff168152602001600073ffffffffffffffffffffffffffffffffffffffff168152602001600081526020016000815260200160008152602001600015158152602001600015158152602001600015158152602001600015158152602001600081525090565b600081359050613ae381614a1e565b92915050565b600081359050613af881614a35565b92915050565b600081359050613b0d81614a4c565b92915050565b600081519050613b2281614a4c565b92915050565b600081359050613b3781614a63565b92915050565b600081519050613b4c81614a63565b92915050565b600060208284031215613b6457600080fd5b6000613b7284828501613ad4565b91505092915050565b600060208284031215613b8d57600080fd5b6000613b9b84828501613ae9565b91505092915050565b600080600080600080600080610100898b031215613bc157600080fd5b6000613bcf8b828c01613ae9565b9850506020613be08b828c01613ae9565b9750506040613bf18b828c01613ad4565b9650506060613c028b828c01613ad4565b9550506080613c138b828c01613b28565b94505060a0613c248b828c01613b28565b93505060c0613c358b828c01613b28565b92505060e0613c468b828c01613afe565b9150509295985092959890939650565b600060208284031215613c6857600080fd5b6000613c7684828501613b13565b91505092915050565b60008060408385031215613c9257600080fd5b6000613ca085828601613afe565b9250506020613cb185828601613ad4565b9150509250929050565b600060208284031215613ccd57600080fd5b6000613cdb84828501613b28565b91505092915050565b600060208284031215613cf657600080fd5b6000613d0484828501613b3d565b91505092915050565b613d16816145a7565b82525050565b613d258161455f565b82525050565b613d348161455f565b82525050565b613d438161454d565b82525050565b613d528161454d565b82525050565b613d6181614571565b82525050565b613d7081614571565b82525050565b6000613d83604483614427565b9150613d8e8261463b565b606082019050919050565b6000613da6602683614427565b9150613db1826146b0565b604082019050919050565b6000613dc9601083614427565b9150613dd4826146ff565b602082019050919050565b6000613dec603083614427565b9150613df782614728565b604082019050919050565b6000613e0f601983614427565b9150613e1a82614777565b602082019050919050565b6000613e32602983614427565b9150613e3d826147a0565b604082019050919050565b6000613e55601e83614427565b9150613e60826147ef565b602082019050919050565b6000613e78601883614427565b9150613e8382614818565b602082019050919050565b6000613e9b601983614427565b9150613ea682614841565b602082019050919050565b6000613ebe605483614427565b9150613ec98261486a565b606082019050919050565b6000613ee1602b83614427565b9150613eec826148df565b604082019050919050565b6000613f04601783614427565b9150613f0f8261492e565b602082019050919050565b6000613f27603383614427565b9150613f3282614957565b604082019050919050565b6000613f4a602283614427565b9150613f55826149a6565b604082019050919050565b6000613f6d601e83614427565b9150613f78826149f5565b602082019050919050565b61018082016000820151613f9a6000850182613d1c565b506020820151613fad6020850182613d1c565b506040820151613fc06040850182613d3a565b506060820151613fd36060850182613d3a565b506080820151613fe66080850182614079565b5060a0820151613ff960a0850182614079565b5060c082015161400c60c0850182614079565b5060e082015161401f60e0850182613d58565b50610100820151614034610100850182613d58565b50610120820151614049610120850182613d58565b5061014082015161405e610140850182613d58565b50610160820151614073610160850182614079565b50505050565b6140828161459d565b82525050565b6140918161459d565b82525050565b60006020820190506140ac6000830184613d49565b92915050565b60006020820190506140c76000830184613d2b565b92915050565b6000610180820190506140e3600083018f613d2b565b6140f0602083018e613d2b565b6140fd604083018d613d49565b61410a606083018c613d49565b614117608083018b614088565b61412460a083018a614088565b61413160c0830189614088565b61413e60e0830188613d67565b61414c610100830187613d67565b61415a610120830186613d67565b614168610140830185613d67565b614176610160830184614088565b9d9c50505050505050505050505050565b600060408201905061419c6000830185613d0d565b6141a96020830184614088565b9392505050565b60006060820190506141c56000830186613d49565b6141d26020830185613d49565b6141df6040830184614088565b949350505050565b60006040820190506141fc6000830185613d49565b6142096020830184614088565b9392505050565b6000602082019050818103600083015261422981613d76565b9050919050565b6000602082019050818103600083015261424981613d99565b9050919050565b6000602082019050818103600083015261426981613dbc565b9050919050565b6000602082019050818103600083015261428981613ddf565b9050919050565b600060208201905081810360008301526142a981613e02565b9050919050565b600060208201905081810360008301526142c981613e25565b9050919050565b600060208201905081810360008301526142e981613e48565b9050919050565b6000602082019050818103600083015261430981613e6b565b9050919050565b6000602082019050818103600083015261432981613e8e565b9050919050565b6000602082019050818103600083015261434981613eb1565b9050919050565b6000602082019050818103600083015261436981613ed4565b9050919050565b6000602082019050818103600083015261438981613ef7565b9050919050565b600060208201905081810360008301526143a981613f1a565b9050919050565b600060208201905081810360008301526143c981613f3d565b9050919050565b600060208201905081810360008301526143e981613f60565b9050919050565b6000610180820190506144066000830184613f83565b92915050565b60006020820190506144216000830184614088565b92915050565b600082825260208201905092915050565b60006144438261459d565b915061444e8361459d565b9250827fffffffffffffffffffffffffffffffffffffffffffffffffffffffffffffffff03821115614483576144826145dd565b5b828201905092915050565b60006144998261459d565b91506144a48361459d565b9250826144b4576144b361460c565b5b828204905092915050565b60006144ca8261459d565b91506144d58361459d565b9250817fffffffffffffffffffffffffffffffffffffffffffffffffffffffffffffffff048311821515161561450e5761450d6145dd565b5b828202905092915050565b60006145248261459d565b915061452f8361459d565b925082821015614542576145416145dd565b5b828203905092915050565b60006145588261457d565b9050919050565b600061456a8261457d565b9050919050565b60008115159050919050565b600073ffffffffffffffffffffffffffffffffffffffff82169050919050565b6000819050919050565b60006145b2826145b9565b9050919050565b60006145c4826145cb565b9050919050565b60006145d68261457d565b9050919050565b7f4e487b7100000000000000000000000000000000000000000000000000000000600052601160045260246000fd5b7f4e487b7100000000000000000000000000000000000000000000000000000000600052601260045260246000fd5b7f596f75206d757374206669727374206465706f73697420796f757220746f6b6560008201527f6e73206265666f7265207769746864726177696e6720636f756e74657270617260208201527f7469657300000000000000000000000000000000000000000000000000000000604082015250565b7f546f6b656e732077697468207472616e7366657220746178206e6f742073757060008201527f706f727465640000000000000000000000000000000000000000000000000000602082015250565b7f496e636f727265637420416d6f756e7400000000000000000000000000000000600082015250565b7f5769746864726177616c732066726f6d2073776170207061727469636970616e60008201527f7420616464726573736573206f6e6c7900000000000000000000000000000000602082015250565b7f4d7573742062652066726f6d20537761702063726561746f7200000000000000600082015250565b7f436f756e746572706172747920686173206e6f74206465706f7369746564207460008201527f6f6b656e73207965740000000000000000000000000000000000000000000000602082015250565b7f4d7573742062652066726f6d207377617020636f756e74657270617274790000600082015250565b7f41636365737369626c652062792061646d696e206f6e6c790000000000000000600082015250565b7f4d7573742062652066726f6d20737761702063726561746f7200000000000000600082015250565b7f436f756e74657270617274792068617320616c7265616479207769746864726160008201527f776e2c2063616e6e6f74207769746864726177206f776e20746f6b656e73207560208201527f6e6c65737320746865792072656465706f736974000000000000000000000000604082015250565b7f53776170206d75737420626520637265617465642066726f6d20696e6974696160008201527f746f722061646472657373000000000000000000000000000000000000000000602082015250565b7f506172747920616c7265616479206465706f7369746564000000000000000000600082015250565b7f596f752068617665206e6f74206465706f736974656420616e7920746f6b656e60008201527f73207965742c20636865656b206f6620796f7500000000000000000000000000602082015250565b7f50617274696370616e7420616c726561647920776974686472657720746f6b6560008201527f6e73000000000000000000000000000000000000000000000000000000000000602082015250565b7f4d7573742062652066726f6d205377617020636f756e74657270617274790000600082015250565b614a278161454d565b8114614a3257600080fd5b50565b614a3e8161455f565b8114614a4957600080fd5b50565b614a5581614571565b8114614a6057600080fd5b50565b614a6c8161459d565b8114614a7757600080fd5b5056fea2646970667358221220376fc2eb7471a64f7ed1b9b8df473dbcf5266e85f5208c3093f6e81fb7e5869364736f6c63430008040033",
    "linkReferences": {},
    "deployedLinkReferences": {},
    "address": "0x9fE46736679d2D9a65F0992F2272dE9f3c7fa6e0"
}