{
    "_format": "hh-sol-artifact-1",
    "contractName": "PartySwap",
    "sourceName": "contracts/PartySwap.sol",
    "abi": [
        {
            "inputs": [],
            "stateMutability": "nonpayable",
            "type": "constructor"
        },
        {
            "anonymous": false,
            "inputs": [
                {
                    "indexed": true,
                    "internalType": "address",
                    "name": "from",
                    "type": "address"
                },
                {
                    "indexed": true,
                    "internalType": "address",
                    "name": "to",
                    "type": "address"
                },
                {
                    "indexed": false,
                    "internalType": "uint256",
                    "name": "current_swap_id",
                    "type": "uint256"
                }
            ],
            "name": "swapCreated",
            "type": "event"
        },
        {
            "inputs": [
                {
                    "internalType": "uint256",
                    "name": "fee",
                    "type": "uint256"
                }
            ],
            "name": "adjust_fee",
            "outputs": [],
            "stateMutability": "nonpayable",
            "type": "function"
        },
        {
            "inputs": [],
            "name": "admin",
            "outputs": [
                {
                    "internalType": "address payable",
                    "name": "",
                    "type": "address"
                }
            ],
            "stateMutability": "view",
            "type": "function"
        },
        {
            "inputs": [
                {
                    "internalType": "bool",
                    "name": "withdraw_eth",
                    "type": "bool"
                },
                {
                    "internalType": "address",
                    "name": "token_address",
                    "type": "address"
                }
            ],
            "name": "admin_withdraw_accrued_fees",
            "outputs": [],
            "stateMutability": "nonpayable",
            "type": "function"
        },
        {
            "inputs": [
                {
                    "internalType": "address payable",
                    "name": "from",
                    "type": "address"
                },
                {
                    "internalType": "address payable",
                    "name": "to",
                    "type": "address"
                },
                {
                    "internalType": "address",
                    "name": "from_token",
                    "type": "address"
                },
                {
                    "internalType": "address",
                    "name": "to_token",
                    "type": "address"
                },
                {
                    "internalType": "uint256",
                    "name": "from_amount",
                    "type": "uint256"
                },
                {
                    "internalType": "uint256",
                    "name": "to_amount",
                    "type": "uint256"
                },
                {
                    "internalType": "uint256",
                    "name": "is_eth",
                    "type": "uint256"
                },
                {
                    "internalType": "bool",
                    "name": "deposit_now",
                    "type": "bool"
                }
            ],
            "name": "createSwap",
            "outputs": [],
            "stateMutability": "payable",
            "type": "function"
        },
        {
            "inputs": [],
            "name": "current_fee",
            "outputs": [
                {
                    "internalType": "uint256",
                    "name": "",
                    "type": "uint256"
                }
            ],
            "stateMutability": "view",
            "type": "function"
        },
        {
            "inputs": [],
            "name": "current_swap_id",
            "outputs": [
                {
                    "internalType": "uint256",
                    "name": "",
                    "type": "uint256"
                }
            ],
            "stateMutability": "view",
            "type": "function"
        },
        {
            "inputs": [],
            "name": "eth_fees_accrued",
            "outputs": [
                {
                    "internalType": "uint256",
                    "name": "",
                    "type": "uint256"
                }
            ],
            "stateMutability": "view",
            "type": "function"
        },
        {
            "inputs": [
                {
                    "internalType": "uint256",
                    "name": "swap_id",
                    "type": "uint256"
                }
            ],
            "name": "from_deposit",
            "outputs": [],
            "stateMutability": "payable",
            "type": "function"
        },
        {
            "inputs": [
                {
                    "internalType": "uint256",
                    "name": "swap_id",
                    "type": "uint256"
                }
            ],
            "name": "from_withdraw_own_tokens",
            "outputs": [],
            "stateMutability": "nonpayable",
            "type": "function"
        },
        {
            "inputs": [
                {
                    "internalType": "uint256",
                    "name": "swap_id",
                    "type": "uint256"
                }
            ],
            "name": "from_withdraw_to_tokens",
            "outputs": [],
            "stateMutability": "nonpayable",
            "type": "function"
        },
        {
            "inputs": [
                {
                    "internalType": "uint256",
                    "name": "swap_id",
                    "type": "uint256"
                }
            ],
            "name": "swaps_id_details_getter",
            "outputs": [
                {
                    "components": [
                        {
                            "internalType": "address payable",
                            "name": "from",
                            "type": "address"
                        },
                        {
                            "internalType": "address payable",
                            "name": "to",
                            "type": "address"
                        },
                        {
                            "internalType": "address",
                            "name": "from_token",
                            "type": "address"
                        },
                        {
                            "internalType": "address",
                            "name": "to_token",
                            "type": "address"
                        },
                        {
                            "internalType": "uint256",
                            "name": "from_amount",
                            "type": "uint256"
                        },
                        {
                            "internalType": "uint256",
                            "name": "to_amount",
                            "type": "uint256"
                        },
                        {
                            "internalType": "uint256",
                            "name": "fee_percent_each",
                            "type": "uint256"
                        },
                        {
                            "internalType": "bool",
                            "name": "from_deposited",
                            "type": "bool"
                        },
                        {
                            "internalType": "bool",
                            "name": "to_deposited",
                            "type": "bool"
                        },
                        {
                            "internalType": "bool",
                            "name": "from_complete",
                            "type": "bool"
                        },
                        {
                            "internalType": "bool",
                            "name": "to_complete",
                            "type": "bool"
                        },
                        {
                            "internalType": "uint256",
                            "name": "is_eth",
                            "type": "uint256"
                        }
                    ],
                    "internalType": "struct PartySwap.Swap",
                    "name": "",
                    "type": "tuple"
                }
            ],
            "stateMutability": "view",
            "type": "function"
        },
        {
            "inputs": [
                {
                    "internalType": "uint256",
                    "name": "",
                    "type": "uint256"
                }
            ],
            "name": "swaps_list",
            "outputs": [
                {
                    "internalType": "address payable",
                    "name": "from",
                    "type": "address"
                },
                {
                    "internalType": "address payable",
                    "name": "to",
                    "type": "address"
                },
                {
                    "internalType": "address",
                    "name": "from_token",
                    "type": "address"
                },
                {
                    "internalType": "address",
                    "name": "to_token",
                    "type": "address"
                },
                {
                    "internalType": "uint256",
                    "name": "from_amount",
                    "type": "uint256"
                },
                {
                    "internalType": "uint256",
                    "name": "to_amount",
                    "type": "uint256"
                },
                {
                    "internalType": "uint256",
                    "name": "fee_percent_each",
                    "type": "uint256"
                },
                {
                    "internalType": "bool",
                    "name": "from_deposited",
                    "type": "bool"
                },
                {
                    "internalType": "bool",
                    "name": "to_deposited",
                    "type": "bool"
                },
                {
                    "internalType": "bool",
                    "name": "from_complete",
                    "type": "bool"
                },
                {
                    "internalType": "bool",
                    "name": "to_complete",
                    "type": "bool"
                },
                {
                    "internalType": "uint256",
                    "name": "is_eth",
                    "type": "uint256"
                }
            ],
            "stateMutability": "view",
            "type": "function"
        },
        {
            "inputs": [
                {
                    "internalType": "address payable",
                    "name": "new_admin",
                    "type": "address"
                }
            ],
            "name": "switch_admin_address",
            "outputs": [],
            "stateMutability": "nonpayable",
            "type": "function"
        },
        {
            "inputs": [
                {
                    "internalType": "uint256",
                    "name": "swap_id",
                    "type": "uint256"
                }
            ],
            "name": "to_deposit",
            "outputs": [],
            "stateMutability": "payable",
            "type": "function"
        },
        {
            "inputs": [
                {
                    "internalType": "uint256",
                    "name": "swap_id",
                    "type": "uint256"
                }
            ],
            "name": "to_withdraw_from_tokens",
            "outputs": [],
            "stateMutability": "nonpayable",
            "type": "function"
        },
        {
            "inputs": [
                {
                    "internalType": "uint256",
                    "name": "swap_id",
                    "type": "uint256"
                }
            ],
            "name": "to_withdraw_own_tokens",
            "outputs": [],
            "stateMutability": "nonpayable",
            "type": "function"
        },
        {
            "inputs": [
                {
                    "internalType": "address",
                    "name": "",
                    "type": "address"
                }
            ],
            "name": "token_fees_accrued",
            "outputs": [
                {
                    "internalType": "uint256",
                    "name": "",
                    "type": "uint256"
                }
            ],
            "stateMutability": "view",
            "type": "function"
        }
    ],
    "bytecode": "0x6080604052604b60025534801561001557600080fd5b5033600360006101000a81548173ffffffffffffffffffffffffffffffffffffffff021916908373ffffffffffffffffffffffffffffffffffffffff160217905550614aac806100666000396000f3fe6080604052600436106100fe5760003560e01c8063a35c2e8311610095578063b3fc5edf11610064578063b3fc5edf1461032f578063bc7e4f8b14610358578063c2c19d4814610381578063e2fadf3d1461039d578063f851a440146103b9576100fe565b8063a35c2e8314610285578063a6d8209d146102ae578063a8a09c92146102d9578063b04a507514610304576100fe565b8063686ef905116100d1578063686ef905146101ee5780637932f2bc1461020a5780638e4fe9bb146102335780639269ff0a1461025c576100fe565b80632281c0ba1461010357806328738fdd146101405780632bb8ceb91461018857806335c11cd8146101b1575b600080fd5b34801561010f57600080fd5b5061012a60048036038101906101259190613b4e565b6103e4565b6040516101379190614408565b60405180910390f35b34801561014c57600080fd5b5061016760048036038101906101629190613cb7565b6103fc565b60405161017f9c9b9a999897969594939291906140c9565b60405180910390f35b34801561019457600080fd5b506101af60048036038101906101aa9190613cb7565b610520565b005b3480156101bd57600080fd5b506101d860048036038101906101d39190613cb7565b610cb8565b6040516101e591906143ec565b60405180910390f35b61020860048036038101906102039190613ba0565b610f07565b005b34801561021657600080fd5b50610231600480360381019061022c9190613c7b565b6117e0565b005b34801561023f57600080fd5b5061025a60048036038101906102559190613cb7565b611a2d565b005b34801561026857600080fd5b50610283600480360381019061027e9190613cb7565b6121c4565b005b34801561029157600080fd5b506102ac60048036038101906102a79190613cb7565b61226d565b005b3480156102ba57600080fd5b506102c36127c1565b6040516102d09190614408565b60405180910390f35b3480156102e557600080fd5b506102ee6127c7565b6040516102fb9190614408565b60405180910390f35b34801561031057600080fd5b506103196127cd565b6040516103269190614408565b60405180910390f35b34801561033b57600080fd5b5061035660048036038101906103519190613cb7565b6127d3565b005b34801561036457600080fd5b5061037f600480360381019061037a9190613b77565b612d28565b005b61039b60048036038101906103969190613cb7565b612dfc565b005b6103b760048036038101906103b29190613cb7565b6133f2565b005b3480156103c557600080fd5b506103ce6139e9565b6040516103db91906140ae565b60405180910390f35b60056020528060005260406000206000915090505481565b6000818154811061040c57600080fd5b90600052602060002090600902016000915090508060000160009054906101000a900473ffffffffffffffffffffffffffffffffffffffff16908060010160009054906101000a900473ffffffffffffffffffffffffffffffffffffffff16908060020160009054906101000a900473ffffffffffffffffffffffffffffffffffffffff16908060030160009054906101000a900473ffffffffffffffffffffffffffffffffffffffff16908060040154908060050154908060060154908060070160009054906101000a900460ff16908060070160019054906101000a900460ff16908060070160029054906101000a900460ff16908060070160039054906101000a900460ff1690806008015490508c565b3373ffffffffffffffffffffffffffffffffffffffff1660008281548110610571577f4e487b7100000000000000000000000000000000000000000000000000000000600052603260045260246000fd5b906000526020600020906009020160000160009054906101000a900473ffffffffffffffffffffffffffffffffffffffff1673ffffffffffffffffffffffffffffffffffffffff16146105f9576040517f08c379a00000000000000000000000000000000000000000000000000000000081526004016105f09061426c565b60405180910390fd5b6000151560008281548110610637577f4e487b7100000000000000000000000000000000000000000000000000000000600052603260045260246000fd5b906000526020600020906009020160070160029054906101000a900460ff16151514610698576040517f08c379a000000000000000000000000000000000000000000000000000000000815260040161068f906143ac565b60405180910390fd5b60011515600082815481106106d6577f4e487b7100000000000000000000000000000000000000000000000000000000600052603260045260246000fd5b906000526020600020906009020160070160009054906101000a900460ff16151514610737576040517f08c379a000000000000000000000000000000000000000000000000000000000815260040161072e9061420c565b60405180910390fd5b6001151560008281548110610775577f4e487b7100000000000000000000000000000000000000000000000000000000600052603260045260246000fd5b906000526020600020906009020160070160019054906101000a900460ff161515146107d6576040517f08c379a00000000000000000000000000000000000000000000000000000000081526004016107cd906142ac565b60405180910390fd5b600061271060008381548110610815577f4e487b7100000000000000000000000000000000000000000000000000000000600052603260045260246000fd5b90600052602060002090600902016006015460008481548110610861577f4e487b7100000000000000000000000000000000000000000000000000000000600052603260045260246000fd5b90600052602060002090600902016005015461087d91906144bb565b610887919061448a565b9050600160028111156108c3577f4e487b7100000000000000000000000000000000000000000000000000000000600052602160045260246000fd5b600083815481106108fd577f4e487b7100000000000000000000000000000000000000000000000000000000600052603260045260246000fd5b9060005260206000209060090201600801541415610b2e576000808381548110610950577f4e487b7100000000000000000000000000000000000000000000000000000000600052603260045260246000fd5b906000526020600020906009020160030160009054906101000a900473ffffffffffffffffffffffffffffffffffffffff16905081600560008086815481106109c2577f4e487b7100000000000000000000000000000000000000000000000000000000600052603260045260246000fd5b906000526020600020906009020160030160009054906101000a900473ffffffffffffffffffffffffffffffffffffffff1673ffffffffffffffffffffffffffffffffffffffff1673ffffffffffffffffffffffffffffffffffffffff1681526020019081526020016000206000828254610a3d9190614434565b925050819055508073ffffffffffffffffffffffffffffffffffffffff1663a9059cbb338460008781548110610a9c577f4e487b7100000000000000000000000000000000000000000000000000000000600052603260045260246000fd5b906000526020600020906009020160050154610ab89190614515565b6040518363ffffffff1660e01b8152600401610ad59291906141e3565b602060405180830381600087803b158015610aef57600080fd5b505af1158015610b03573d6000803e3d6000fd5b505050506040513d601f19601f82011682018060405250810190610b279190613c52565b5050610c50565b8060046000828254610b409190614434565b9250508190555060008281548110610b81577f4e487b7100000000000000000000000000000000000000000000000000000000600052603260045260246000fd5b906000526020600020906009020160000160009054906101000a900473ffffffffffffffffffffffffffffffffffffffff1673ffffffffffffffffffffffffffffffffffffffff166108fc8260008581548110610c07577f4e487b7100000000000000000000000000000000000000000000000000000000600052603260045260246000fd5b906000526020600020906009020160050154610c239190614515565b9081150290604051600060405180830381858888f19350505050158015610c4e573d6000803e3d6000fd5b505b600160008381548110610c8c577f4e487b7100000000000000000000000000000000000000000000000000000000600052603260045260246000fd5b906000526020600020906009020160070160026101000a81548160ff0219169083151502179055505050565b610cc0613a0f565b60008281548110610cfa577f4e487b7100000000000000000000000000000000000000000000000000000000600052603260045260246000fd5b9060005260206000209060090201604051806101800160405290816000820160009054906101000a900473ffffffffffffffffffffffffffffffffffffffff1673ffffffffffffffffffffffffffffffffffffffff1673ffffffffffffffffffffffffffffffffffffffff1681526020016001820160009054906101000a900473ffffffffffffffffffffffffffffffffffffffff1673ffffffffffffffffffffffffffffffffffffffff1673ffffffffffffffffffffffffffffffffffffffff1681526020016002820160009054906101000a900473ffffffffffffffffffffffffffffffffffffffff1673ffffffffffffffffffffffffffffffffffffffff1673ffffffffffffffffffffffffffffffffffffffff1681526020016003820160009054906101000a900473ffffffffffffffffffffffffffffffffffffffff1673ffffffffffffffffffffffffffffffffffffffff1673ffffffffffffffffffffffffffffffffffffffff1681526020016004820154815260200160058201548152602001600682015481526020016007820160009054906101000a900460ff161515151581526020016007820160019054906101000a900460ff161515151581526020016007820160029054906101000a900460ff161515151581526020016007820160039054906101000a900460ff161515151581526020016008820154815250509050919050565b3373ffffffffffffffffffffffffffffffffffffffff168873ffffffffffffffffffffffffffffffffffffffff1614610f75576040517f08c379a0000000000000000000000000000000000000000000000000000000008152600401610f6c9061434c565b60405180910390fd5b60006040518061018001604052808a73ffffffffffffffffffffffffffffffffffffffff1681526020018973ffffffffffffffffffffffffffffffffffffffff1681526020018873ffffffffffffffffffffffffffffffffffffffff1681526020018773ffffffffffffffffffffffffffffffffffffffff168152602001868152602001858152602001600254815260200160001515815260200160001515815260200160001515815260200160001515815260200184815250908060018154018082558091505060019003906000526020600020906009020160009091909190915060008201518160000160006101000a81548173ffffffffffffffffffffffffffffffffffffffff021916908373ffffffffffffffffffffffffffffffffffffffff16021790555060208201518160010160006101000a81548173ffffffffffffffffffffffffffffffffffffffff021916908373ffffffffffffffffffffffffffffffffffffffff16021790555060408201518160020160006101000a81548173ffffffffffffffffffffffffffffffffffffffff021916908373ffffffffffffffffffffffffffffffffffffffff16021790555060608201518160030160006101000a81548173ffffffffffffffffffffffffffffffffffffffff021916908373ffffffffffffffffffffffffffffffffffffffff1602179055506080820151816004015560a0820151816005015560c0820151816006015560e08201518160070160006101000a81548160ff0219169083151502179055506101008201518160070160016101000a81548160ff0219169083151502179055506101208201518160070160026101000a81548160ff0219169083151502179055506101408201518160070160036101000a81548160ff021916908315150217905550610160820151816008015550508015611756573373ffffffffffffffffffffffffffffffffffffffff1660006001548154811061127b577f4e487b7100000000000000000000000000000000000000000000000000000000600052603260045260246000fd5b906000526020600020906009020160000160009054906101000a900473ffffffffffffffffffffffffffffffffffffffff1673ffffffffffffffffffffffffffffffffffffffff1614611303576040517f08c379a00000000000000000000000000000000000000000000000000000000081526004016112fa9061428c565b60405180910390fd5b6001600281111561133d577f4e487b7100000000000000000000000000000000000000000000000000000000600052602160045260246000fd5b600060015481548110611379577f4e487b7100000000000000000000000000000000000000000000000000000000600052603260045260246000fd5b90600052602060002090600902016008015414156113ef576000600154815481106113cd577f4e487b7100000000000000000000000000000000000000000000000000000000600052603260045260246000fd5b90600052602060002090600902016004015434146113ea57600080fd5b6116ef565b6000806001548154811061142c577f4e487b7100000000000000000000000000000000000000000000000000000000600052603260045260246000fd5b906000526020600020906009020160020160009054906101000a900473ffffffffffffffffffffffffffffffffffffffff16905060008173ffffffffffffffffffffffffffffffffffffffff166370a08231306040518263ffffffff1660e01b815260040161149b9190614093565b60206040518083038186803b1580156114b357600080fd5b505afa1580156114c7573d6000803e3d6000fd5b505050506040513d601f19601f820116820180604052508101906114eb9190613ce0565b90508173ffffffffffffffffffffffffffffffffffffffff166323b872dd3330600060015481548110611547577f4e487b7100000000000000000000000000000000000000000000000000000000600052603260045260246000fd5b9060005260206000209060090201600401546040518463ffffffff1660e01b8152600401611577939291906141ac565b602060405180830381600087803b15801561159157600080fd5b505af11580156115a5573d6000803e3d6000fd5b505050506040513d601f19601f820116820180604052508101906115c99190613c52565b50600060015481548110611606577f4e487b7100000000000000000000000000000000000000000000000000000000600052603260045260246000fd5b906000526020600020906009020160040154818373ffffffffffffffffffffffffffffffffffffffff166370a08231306040518263ffffffff1660e01b81526004016116529190614093565b60206040518083038186803b15801561166a57600080fd5b505afa15801561167e573d6000803e3d6000fd5b505050506040513d601f19601f820116820180604052508101906116a29190613ce0565b6116ac9190614515565b146116ec576040517f08c379a00000000000000000000000000000000000000000000000000000000081526004016116e39061422c565b60405180910390fd5b50505b600160006001548154811061172d577f4e487b7100000000000000000000000000000000000000000000000000000000600052603260045260246000fd5b906000526020600020906009020160070160006101000a81548160ff0219169083151502179055505b8673ffffffffffffffffffffffffffffffffffffffff168873ffffffffffffffffffffffffffffffffffffffff167fabbbbb32ba3fa8a14c8b74abf64dc0bce79d463a4f3e4646ba3542f8f571a4436001546040516117b59190614408565b60405180910390a360018060008282546117cf9190614434565b925050819055505050505050505050565b600360009054906101000a900473ffffffffffffffffffffffffffffffffffffffff1673ffffffffffffffffffffffffffffffffffffffff163373ffffffffffffffffffffffffffffffffffffffff1614611870576040517f08c379a0000000000000000000000000000000000000000000000000000000008152600401611867906142ec565b60405180910390fd5b81156118ee57600360009054906101000a900473ffffffffffffffffffffffffffffffffffffffff1673ffffffffffffffffffffffffffffffffffffffff166108fc6004549081150290604051600060405180830381858888f193505050501580156118e0573d6000803e3d6000fd5b506000600481905550611a29565b60008190508073ffffffffffffffffffffffffffffffffffffffff1663a9059cbb600360009054906101000a900473ffffffffffffffffffffffffffffffffffffffff16600560008673ffffffffffffffffffffffffffffffffffffffff1673ffffffffffffffffffffffffffffffffffffffff168152602001908152602001600020546040518363ffffffff1660e01b815260040161198f929190614183565b602060405180830381600087803b1580156119a957600080fd5b505af11580156119bd573d6000803e3d6000fd5b505050506040513d601f19601f820116820180604052508101906119e19190613c52565b506000600560008473ffffffffffffffffffffffffffffffffffffffff1673ffffffffffffffffffffffffffffffffffffffff16815260200190815260200160002081905550505b5050565b3373ffffffffffffffffffffffffffffffffffffffff1660008281548110611a7e577f4e487b7100000000000000000000000000000000000000000000000000000000600052603260045260246000fd5b906000526020600020906009020160010160009054906101000a900473ffffffffffffffffffffffffffffffffffffffff1673ffffffffffffffffffffffffffffffffffffffff1614611b06576040517f08c379a0000000000000000000000000000000000000000000000000000000008152600401611afd9061426c565b60405180910390fd5b6000151560008281548110611b44577f4e487b7100000000000000000000000000000000000000000000000000000000600052603260045260246000fd5b906000526020600020906009020160070160039054906101000a900460ff16151514611ba5576040517f08c379a0000000000000000000000000000000000000000000000000000000008152600401611b9c906143ac565b60405180910390fd5b6001151560008281548110611be3577f4e487b7100000000000000000000000000000000000000000000000000000000600052603260045260246000fd5b906000526020600020906009020160070160019054906101000a900460ff16151514611c44576040517f08c379a0000000000000000000000000000000000000000000000000000000008152600401611c3b9061420c565b60405180910390fd5b6001151560008281548110611c82577f4e487b7100000000000000000000000000000000000000000000000000000000600052603260045260246000fd5b906000526020600020906009020160070160009054906101000a900460ff16151514611ce3576040517f08c379a0000000000000000000000000000000000000000000000000000000008152600401611cda906142ac565b60405180910390fd5b600061271060008381548110611d22577f4e487b7100000000000000000000000000000000000000000000000000000000600052603260045260246000fd5b90600052602060002090600902016006015460008481548110611d6e577f4e487b7100000000000000000000000000000000000000000000000000000000600052603260045260246000fd5b906000526020600020906009020160040154611d8a91906144bb565b611d94919061448a565b9050600280811115611dcf577f4e487b7100000000000000000000000000000000000000000000000000000000600052602160045260246000fd5b60008381548110611e09577f4e487b7100000000000000000000000000000000000000000000000000000000600052603260045260246000fd5b906000526020600020906009020160080154141561203a576000808381548110611e5c577f4e487b7100000000000000000000000000000000000000000000000000000000600052603260045260246000fd5b906000526020600020906009020160020160009054906101000a900473ffffffffffffffffffffffffffffffffffffffff1690508160056000808681548110611ece577f4e487b7100000000000000000000000000000000000000000000000000000000600052603260045260246000fd5b906000526020600020906009020160020160009054906101000a900473ffffffffffffffffffffffffffffffffffffffff1673ffffffffffffffffffffffffffffffffffffffff1673ffffffffffffffffffffffffffffffffffffffff1681526020019081526020016000206000828254611f499190614434565b925050819055508073ffffffffffffffffffffffffffffffffffffffff1663a9059cbb338460008781548110611fa8577f4e487b7100000000000000000000000000000000000000000000000000000000600052603260045260246000fd5b906000526020600020906009020160040154611fc49190614515565b6040518363ffffffff1660e01b8152600401611fe19291906141e3565b602060405180830381600087803b158015611ffb57600080fd5b505af115801561200f573d6000803e3d6000fd5b505050506040513d601f19601f820116820180604052508101906120339190613c52565b505061215c565b806004600082825461204c9190614434565b925050819055506000828154811061208d577f4e487b7100000000000000000000000000000000000000000000000000000000600052603260045260246000fd5b906000526020600020906009020160010160009054906101000a900473ffffffffffffffffffffffffffffffffffffffff1673ffffffffffffffffffffffffffffffffffffffff166108fc8260008581548110612113577f4e487b7100000000000000000000000000000000000000000000000000000000600052603260045260246000fd5b90600052602060002090600902016004015461212f9190614515565b9081150290604051600060405180830381858888f1935050505015801561215a573d6000803e3d6000fd5b505b600160008381548110612198577f4e487b7100000000000000000000000000000000000000000000000000000000600052603260045260246000fd5b906000526020600020906009020160070160036101000a81548160ff0219169083151502179055505050565b600360009054906101000a900473ffffffffffffffffffffffffffffffffffffffff1673ffffffffffffffffffffffffffffffffffffffff163373ffffffffffffffffffffffffffffffffffffffff1614612254576040517f08c379a000000000000000000000000000000000000000000000000000000000815260040161224b906142ec565b60405180910390fd5b6101f481111561226357600080fd5b8060028190555050565b3373ffffffffffffffffffffffffffffffffffffffff16600082815481106122be577f4e487b7100000000000000000000000000000000000000000000000000000000600052603260045260246000fd5b906000526020600020906009020160010160009054906101000a900473ffffffffffffffffffffffffffffffffffffffff1673ffffffffffffffffffffffffffffffffffffffff1614612346576040517f08c379a000000000000000000000000000000000000000000000000000000000815260040161233d906142cc565b60405180910390fd5b6000151560008281548110612384577f4e487b7100000000000000000000000000000000000000000000000000000000600052603260045260246000fd5b906000526020600020906009020160070160029054906101000a900460ff161515146123e5576040517f08c379a00000000000000000000000000000000000000000000000000000000081526004016123dc9061432c565b60405180910390fd5b6001151560008281548110612423577f4e487b7100000000000000000000000000000000000000000000000000000000600052603260045260246000fd5b906000526020600020906009020160070160019054906101000a900460ff16151514612484576040517f08c379a000000000000000000000000000000000000000000000000000000000815260040161247b9061438c565b60405180910390fd5b6002808111156124bd577f4e487b7100000000000000000000000000000000000000000000000000000000600052602160045260246000fd5b600082815481106124f7577f4e487b7100000000000000000000000000000000000000000000000000000000600052603260045260246000fd5b90600052602060002090600902016008015414156126115760008181548110612549577f4e487b7100000000000000000000000000000000000000000000000000000000600052603260045260246000fd5b906000526020600020906009020160010160009054906101000a900473ffffffffffffffffffffffffffffffffffffffff1673ffffffffffffffffffffffffffffffffffffffff166108fc600083815481106125ce577f4e487b7100000000000000000000000000000000000000000000000000000000600052603260045260246000fd5b9060005260206000209060090201600501549081150290604051600060405180830381858888f1935050505015801561260b573d6000803e3d6000fd5b5061275b565b600080828154811061264c577f4e487b7100000000000000000000000000000000000000000000000000000000600052603260045260246000fd5b906000526020600020906009020160030160009054906101000a900473ffffffffffffffffffffffffffffffffffffffff1690508073ffffffffffffffffffffffffffffffffffffffff1663a9059cbb33600085815481106126d7577f4e487b7100000000000000000000000000000000000000000000000000000000600052603260045260246000fd5b9060005260206000209060090201600501546040518363ffffffff1660e01b81526004016127069291906141e3565b602060405180830381600087803b15801561272057600080fd5b505af1158015612734573d6000803e3d6000fd5b505050506040513d601f19601f820116820180604052508101906127589190613c52565b50505b6000808281548110612796577f4e487b7100000000000000000000000000000000000000000000000000000000600052603260045260246000fd5b906000526020600020906009020160070160016101000a81548160ff02191690831515021790555050565b60045481565b60025481565b60015481565b3373ffffffffffffffffffffffffffffffffffffffff1660008281548110612824577f4e487b7100000000000000000000000000000000000000000000000000000000600052603260045260246000fd5b906000526020600020906009020160000160009054906101000a900473ffffffffffffffffffffffffffffffffffffffff1673ffffffffffffffffffffffffffffffffffffffff16146128ac576040517f08c379a00000000000000000000000000000000000000000000000000000000081526004016128a39061430c565b60405180910390fd5b60001515600082815481106128ea577f4e487b7100000000000000000000000000000000000000000000000000000000600052603260045260246000fd5b906000526020600020906009020160070160039054906101000a900460ff1615151461294b576040517f08c379a00000000000000000000000000000000000000000000000000000000081526004016129429061432c565b60405180910390fd5b6001151560008281548110612989577f4e487b7100000000000000000000000000000000000000000000000000000000600052603260045260246000fd5b906000526020600020906009020160070160009054906101000a900460ff161515146129ea576040517f08c379a00000000000000000000000000000000000000000000000000000000081526004016129e19061438c565b60405180910390fd5b60016002811115612a24577f4e487b7100000000000000000000000000000000000000000000000000000000600052602160045260246000fd5b60008281548110612a5e577f4e487b7100000000000000000000000000000000000000000000000000000000600052603260045260246000fd5b9060005260206000209060090201600801541415612b785760008181548110612ab0577f4e487b7100000000000000000000000000000000000000000000000000000000600052603260045260246000fd5b906000526020600020906009020160000160009054906101000a900473ffffffffffffffffffffffffffffffffffffffff1673ffffffffffffffffffffffffffffffffffffffff166108fc60008381548110612b35577f4e487b7100000000000000000000000000000000000000000000000000000000600052603260045260246000fd5b9060005260206000209060090201600401549081150290604051600060405180830381858888f19350505050158015612b72573d6000803e3d6000fd5b50612cc2565b6000808281548110612bb3577f4e487b7100000000000000000000000000000000000000000000000000000000600052603260045260246000fd5b906000526020600020906009020160020160009054906101000a900473ffffffffffffffffffffffffffffffffffffffff1690508073ffffffffffffffffffffffffffffffffffffffff1663a9059cbb3360008581548110612c3e577f4e487b7100000000000000000000000000000000000000000000000000000000600052603260045260246000fd5b9060005260206000209060090201600401546040518363ffffffff1660e01b8152600401612c6d9291906141e3565b602060405180830381600087803b158015612c8757600080fd5b505af1158015612c9b573d6000803e3d6000fd5b505050506040513d601f19601f82011682018060405250810190612cbf9190613c52565b50505b6000808281548110612cfd577f4e487b7100000000000000000000000000000000000000000000000000000000600052603260045260246000fd5b906000526020600020906009020160070160006101000a81548160ff02191690831515021790555050565b600360009054906101000a900473ffffffffffffffffffffffffffffffffffffffff1673ffffffffffffffffffffffffffffffffffffffff163373ffffffffffffffffffffffffffffffffffffffff1614612db8576040517f08c379a0000000000000000000000000000000000000000000000000000000008152600401612daf906142ec565b60405180910390fd5b80600360006101000a81548173ffffffffffffffffffffffffffffffffffffffff021916908373ffffffffffffffffffffffffffffffffffffffff16021790555050565b3373ffffffffffffffffffffffffffffffffffffffff1660008281548110612e4d577f4e487b7100000000000000000000000000000000000000000000000000000000600052603260045260246000fd5b906000526020600020906009020160010160009054906101000a900473ffffffffffffffffffffffffffffffffffffffff1673ffffffffffffffffffffffffffffffffffffffff1614612ed5576040517f08c379a0000000000000000000000000000000000000000000000000000000008152600401612ecc906143cc565b60405180910390fd5b6000151560008281548110612f13577f4e487b7100000000000000000000000000000000000000000000000000000000600052603260045260246000fd5b906000526020600020906009020160070160019054906101000a900460ff16151514612f74576040517f08c379a0000000000000000000000000000000000000000000000000000000008152600401612f6b9061436c565b60405180910390fd5b600280811115612fad577f4e487b7100000000000000000000000000000000000000000000000000000000600052602160045260246000fd5b60008281548110612fe7577f4e487b7100000000000000000000000000000000000000000000000000000000600052603260045260246000fd5b90600052602060002090600902016008015414156130915760008181548110613039577f4e487b7100000000000000000000000000000000000000000000000000000000600052603260045260246000fd5b906000526020600020906009020160050154341461308c576040517f08c379a00000000000000000000000000000000000000000000000000000000081526004016130839061424c565b60405180910390fd5b61338b565b60008082815481106130cc577f4e487b7100000000000000000000000000000000000000000000000000000000600052603260045260246000fd5b906000526020600020906009020160030160009054906101000a900473ffffffffffffffffffffffffffffffffffffffff16905060008173ffffffffffffffffffffffffffffffffffffffff166370a08231306040518263ffffffff1660e01b815260040161313b9190614093565b60206040518083038186803b15801561315357600080fd5b505afa158015613167573d6000803e3d6000fd5b505050506040513d601f19601f8201168201806040525081019061318b9190613ce0565b90508173ffffffffffffffffffffffffffffffffffffffff166323b872dd3330600087815481106131e5577f4e487b7100000000000000000000000000000000000000000000000000000000600052603260045260246000fd5b9060005260206000209060090201600501546040518463ffffffff1660e01b8152600401613215939291906141ac565b602060405180830381600087803b15801561322f57600080fd5b505af1158015613243573d6000803e3d6000fd5b505050506040513d601f19601f820116820180604052508101906132679190613c52565b50600083815481106132a2577f4e487b7100000000000000000000000000000000000000000000000000000000600052603260045260246000fd5b906000526020600020906009020160050154818373ffffffffffffffffffffffffffffffffffffffff166370a08231306040518263ffffffff1660e01b81526004016132ee9190614093565b60206040518083038186803b15801561330657600080fd5b505afa15801561331a573d6000803e3d6000fd5b505050506040513d601f19601f8201168201806040525081019061333e9190613ce0565b6133489190614515565b14613388576040517f08c379a000000000000000000000000000000000000000000000000000000000815260040161337f9061422c565b60405180910390fd5b50505b6001600082815481106133c7577f4e487b7100000000000000000000000000000000000000000000000000000000600052603260045260246000fd5b906000526020600020906009020160070160016101000a81548160ff02191690831515021790555050565b3373ffffffffffffffffffffffffffffffffffffffff1660008281548110613443577f4e487b7100000000000000000000000000000000000000000000000000000000600052603260045260246000fd5b906000526020600020906009020160000160009054906101000a900473ffffffffffffffffffffffffffffffffffffffff1673ffffffffffffffffffffffffffffffffffffffff16146134cb576040517f08c379a00000000000000000000000000000000000000000000000000000000081526004016134c29061428c565b60405180910390fd5b6000151560008281548110613509577f4e487b7100000000000000000000000000000000000000000000000000000000600052603260045260246000fd5b906000526020600020906009020160070160009054906101000a900460ff1615151461356a576040517f08c379a00000000000000000000000000000000000000000000000000000000081526004016135619061436c565b60405180910390fd5b600160028111156135a4577f4e487b7100000000000000000000000000000000000000000000000000000000600052602160045260246000fd5b600082815481106135de577f4e487b7100000000000000000000000000000000000000000000000000000000600052603260045260246000fd5b90600052602060002090600902016008015414156136885760008181548110613630577f4e487b7100000000000000000000000000000000000000000000000000000000600052603260045260246000fd5b9060005260206000209060090201600401543414613683576040517f08c379a000000000000000000000000000000000000000000000000000000000815260040161367a9061424c565b60405180910390fd5b613982565b60008082815481106136c3577f4e487b7100000000000000000000000000000000000000000000000000000000600052603260045260246000fd5b906000526020600020906009020160020160009054906101000a900473ffffffffffffffffffffffffffffffffffffffff16905060008173ffffffffffffffffffffffffffffffffffffffff166370a08231306040518263ffffffff1660e01b81526004016137329190614093565b60206040518083038186803b15801561374a57600080fd5b505afa15801561375e573d6000803e3d6000fd5b505050506040513d601f19601f820116820180604052508101906137829190613ce0565b90508173ffffffffffffffffffffffffffffffffffffffff166323b872dd3330600087815481106137dc577f4e487b7100000000000000000000000000000000000000000000000000000000600052603260045260246000fd5b9060005260206000209060090201600401546040518463ffffffff1660e01b815260040161380c939291906141ac565b602060405180830381600087803b15801561382657600080fd5b505af115801561383a573d6000803e3d6000fd5b505050506040513d601f19601f8201168201806040525081019061385e9190613c52565b5060008381548110613899577f4e487b7100000000000000000000000000000000000000000000000000000000600052603260045260246000fd5b906000526020600020906009020160040154818373ffffffffffffffffffffffffffffffffffffffff166370a08231306040518263ffffffff1660e01b81526004016138e59190614093565b60206040518083038186803b1580156138fd57600080fd5b505afa158015613911573d6000803e3d6000fd5b505050506040513d601f19601f820116820180604052508101906139359190613ce0565b61393f9190614515565b1461397f576040517f08c379a00000000000000000000000000000000000000000000000000000000081526004016139769061422c565b60405180910390fd5b50505b6001600082815481106139be577f4e487b7100000000000000000000000000000000000000000000000000000000600052603260045260246000fd5b906000526020600020906009020160070160006101000a81548160ff02191690831515021790555050565b600360009054906101000a900473ffffffffffffffffffffffffffffffffffffffff1681565b604051806101800160405280600073ffffffffffffffffffffffffffffffffffffffff168152602001600073ffffffffffffffffffffffffffffffffffffffff168152602001600073ffffffffffffffffffffffffffffffffffffffff168152602001600073ffffffffffffffffffffffffffffffffffffffff168152602001600081526020016000815260200160008152602001600015158152602001600015158152602001600015158152602001600015158152602001600081525090565b600081359050613adf81614a1a565b92915050565b600081359050613af481614a31565b92915050565b600081359050613b0981614a48565b92915050565b600081519050613b1e81614a48565b92915050565b600081359050613b3381614a5f565b92915050565b600081519050613b4881614a5f565b92915050565b600060208284031215613b6057600080fd5b6000613b6e84828501613ad0565b91505092915050565b600060208284031215613b8957600080fd5b6000613b9784828501613ae5565b91505092915050565b600080600080600080600080610100898b031215613bbd57600080fd5b6000613bcb8b828c01613ae5565b9850506020613bdc8b828c01613ae5565b9750506040613bed8b828c01613ad0565b9650506060613bfe8b828c01613ad0565b9550506080613c0f8b828c01613b24565b94505060a0613c208b828c01613b24565b93505060c0613c318b828c01613b24565b92505060e0613c428b828c01613afa565b9150509295985092959890939650565b600060208284031215613c6457600080fd5b6000613c7284828501613b0f565b91505092915050565b60008060408385031215613c8e57600080fd5b6000613c9c85828601613afa565b9250506020613cad85828601613ad0565b9150509250929050565b600060208284031215613cc957600080fd5b6000613cd784828501613b24565b91505092915050565b600060208284031215613cf257600080fd5b6000613d0084828501613b39565b91505092915050565b613d12816145a3565b82525050565b613d218161455b565b82525050565b613d308161455b565b82525050565b613d3f81614549565b82525050565b613d4e81614549565b82525050565b613d5d8161456d565b82525050565b613d6c8161456d565b82525050565b6000613d7f604483614423565b9150613d8a82614637565b606082019050919050565b6000613da2602683614423565b9150613dad826146ac565b604082019050919050565b6000613dc5601083614423565b9150613dd0826146fb565b602082019050919050565b6000613de8603083614423565b9150613df382614724565b604082019050919050565b6000613e0b601983614423565b9150613e1682614773565b602082019050919050565b6000613e2e602983614423565b9150613e398261479c565b604082019050919050565b6000613e51601e83614423565b9150613e5c826147eb565b602082019050919050565b6000613e74601883614423565b9150613e7f82614814565b602082019050919050565b6000613e97601983614423565b9150613ea28261483d565b602082019050919050565b6000613eba605483614423565b9150613ec582614866565b606082019050919050565b6000613edd602b83614423565b9150613ee8826148db565b604082019050919050565b6000613f00601783614423565b9150613f0b8261492a565b602082019050919050565b6000613f23603383614423565b9150613f2e82614953565b604082019050919050565b6000613f46602283614423565b9150613f51826149a2565b604082019050919050565b6000613f69601e83614423565b9150613f74826149f1565b602082019050919050565b61018082016000820151613f966000850182613d18565b506020820151613fa96020850182613d18565b506040820151613fbc6040850182613d36565b506060820151613fcf6060850182613d36565b506080820151613fe26080850182614075565b5060a0820151613ff560a0850182614075565b5060c082015161400860c0850182614075565b5060e082015161401b60e0850182613d54565b50610100820151614030610100850182613d54565b50610120820151614045610120850182613d54565b5061014082015161405a610140850182613d54565b5061016082015161406f610160850182614075565b50505050565b61407e81614599565b82525050565b61408d81614599565b82525050565b60006020820190506140a86000830184613d45565b92915050565b60006020820190506140c36000830184613d27565b92915050565b6000610180820190506140df600083018f613d27565b6140ec602083018e613d27565b6140f9604083018d613d45565b614106606083018c613d45565b614113608083018b614084565b61412060a083018a614084565b61412d60c0830189614084565b61413a60e0830188613d63565b614148610100830187613d63565b614156610120830186613d63565b614164610140830185613d63565b614172610160830184614084565b9d9c50505050505050505050505050565b60006040820190506141986000830185613d09565b6141a56020830184614084565b9392505050565b60006060820190506141c16000830186613d45565b6141ce6020830185613d45565b6141db6040830184614084565b949350505050565b60006040820190506141f86000830185613d45565b6142056020830184614084565b9392505050565b6000602082019050818103600083015261422581613d72565b9050919050565b6000602082019050818103600083015261424581613d95565b9050919050565b6000602082019050818103600083015261426581613db8565b9050919050565b6000602082019050818103600083015261428581613ddb565b9050919050565b600060208201905081810360008301526142a581613dfe565b9050919050565b600060208201905081810360008301526142c581613e21565b9050919050565b600060208201905081810360008301526142e581613e44565b9050919050565b6000602082019050818103600083015261430581613e67565b9050919050565b6000602082019050818103600083015261432581613e8a565b9050919050565b6000602082019050818103600083015261434581613ead565b9050919050565b6000602082019050818103600083015261436581613ed0565b9050919050565b6000602082019050818103600083015261438581613ef3565b9050919050565b600060208201905081810360008301526143a581613f16565b9050919050565b600060208201905081810360008301526143c581613f39565b9050919050565b600060208201905081810360008301526143e581613f5c565b9050919050565b6000610180820190506144026000830184613f7f565b92915050565b600060208201905061441d6000830184614084565b92915050565b600082825260208201905092915050565b600061443f82614599565b915061444a83614599565b9250827fffffffffffffffffffffffffffffffffffffffffffffffffffffffffffffffff0382111561447f5761447e6145d9565b5b828201905092915050565b600061449582614599565b91506144a083614599565b9250826144b0576144af614608565b5b828204905092915050565b60006144c682614599565b91506144d183614599565b9250817fffffffffffffffffffffffffffffffffffffffffffffffffffffffffffffffff048311821515161561450a576145096145d9565b5b828202905092915050565b600061452082614599565b915061452b83614599565b92508282101561453e5761453d6145d9565b5b828203905092915050565b600061455482614579565b9050919050565b600061456682614579565b9050919050565b60008115159050919050565b600073ffffffffffffffffffffffffffffffffffffffff82169050919050565b6000819050919050565b60006145ae826145b5565b9050919050565b60006145c0826145c7565b9050919050565b60006145d282614579565b9050919050565b7f4e487b7100000000000000000000000000000000000000000000000000000000600052601160045260246000fd5b7f4e487b7100000000000000000000000000000000000000000000000000000000600052601260045260246000fd5b7f596f75206d757374206669727374206465706f73697420796f757220746f6b6560008201527f6e73206265666f7265207769746864726177696e6720636f756e74657270617260208201527f7469657300000000000000000000000000000000000000000000000000000000604082015250565b7f546f6b656e732077697468207472616e7366657220746178206e6f742073757060008201527f706f727465640000000000000000000000000000000000000000000000000000602082015250565b7f496e636f727265637420416d6f756e7400000000000000000000000000000000600082015250565b7f5769746864726177616c732066726f6d2073776170207061727469636970616e60008201527f7420616464726573736573206f6e6c7900000000000000000000000000000000602082015250565b7f4d7573742062652066726f6d20537761702063726561746f7200000000000000600082015250565b7f436f756e746572706172747920686173206e6f74206465706f7369746564207460008201527f6f6b656e73207965740000000000000000000000000000000000000000000000602082015250565b7f4d7573742062652066726f6d207377617020636f756e74657270617274790000600082015250565b7f41636365737369626c652062792061646d696e206f6e6c790000000000000000600082015250565b7f4d7573742062652066726f6d20737761702063726561746f7200000000000000600082015250565b7f436f756e74657270617274792068617320616c7265616479207769746864726160008201527f776e2c2063616e6e6f74207769746864726177206f776e20746f6b656e73207560208201527f6e6c65737320746865792072656465706f736974000000000000000000000000604082015250565b7f53776170206d75737420626520637265617465642066726f6d20696e6974696160008201527f746f722061646472657373000000000000000000000000000000000000000000602082015250565b7f506172747920616c7265616479206465706f7369746564000000000000000000600082015250565b7f596f752068617665206e6f74206465706f736974656420616e7920746f6b656e60008201527f73207965742c20636865656b206f6620796f7500000000000000000000000000602082015250565b7f50617274696370616e7420616c726561647920776974686472657720746f6b6560008201527f6e73000000000000000000000000000000000000000000000000000000000000602082015250565b7f4d7573742062652066726f6d205377617020636f756e74657270617274790000600082015250565b614a2381614549565b8114614a2e57600080fd5b50565b614a3a8161455b565b8114614a4557600080fd5b50565b614a518161456d565b8114614a5c57600080fd5b50565b614a6881614599565b8114614a7357600080fd5b5056fea2646970667358221220b17980575d1f0dd7a98a8ddaa72d8d9f541d779cb5b47577a48c2aad886e483364736f6c63430008040033",
    "linkReferences": {},
    "deployedLinkReferences": {},
    "address": "0xA51c1fc2f0D1a1b8494Ed1FE312d7C3a78Ed91C0"
}